{
  "contractName": "proofOfExistence2",
  "abi": [
    {
      "constant": false,
      "inputs": [
        {
          "internalType": "bytes32",
          "name": "proof",
          "type": "bytes32"
        }
      ],
      "name": "storeProof",
      "outputs": [],
      "payable": false,
      "stateMutability": "nonpayable",
      "type": "function"
    },
    {
      "constant": false,
      "inputs": [
        {
          "internalType": "string",
          "name": "document",
          "type": "string"
        }
      ],
      "name": "notarize",
      "outputs": [],
      "payable": false,
      "stateMutability": "nonpayable",
      "type": "function"
    },
    {
      "constant": true,
      "inputs": [
        {
          "internalType": "string",
          "name": "document",
          "type": "string"
        }
      ],
      "name": "proofFor",
      "outputs": [
        {
          "internalType": "bytes32",
          "name": "",
          "type": "bytes32"
        }
      ],
      "payable": false,
      "stateMutability": "view",
      "type": "function"
    },
    {
      "constant": true,
      "inputs": [
        {
          "internalType": "string",
          "name": "document",
          "type": "string"
        }
      ],
      "name": "checkDocument",
      "outputs": [
        {
          "internalType": "bool",
          "name": "",
          "type": "bool"
        }
      ],
      "payable": false,
      "stateMutability": "view",
      "type": "function"
    },
    {
      "constant": true,
      "inputs": [
        {
          "internalType": "bytes32",
          "name": "proof",
          "type": "bytes32"
        }
      ],
      "name": "hashProof",
      "outputs": [
        {
          "internalType": "bool",
          "name": "",
          "type": "bool"
        }
      ],
      "payable": false,
      "stateMutability": "view",
      "type": "function"
    }
  ],
  "bytecode": "0x608060405234801561001057600080fd5b5061054b806100206000396000f3fe608060405234801561001057600080fd5b50600436106100575760003560e01c8063184242a61461005c57806353fb9233146100a25780637183616c146101755780638952877b14610230578063f6c1acdf1461025e575b600080fd5b6100886004803603602081101561007257600080fd5b810190808035906020019092919050505061032d565b604051808215151515815260200191505060405180910390f35b61015b600480360360208110156100b857600080fd5b81019080803590602001906401000000008111156100d557600080fd5b8201836020820111156100e757600080fd5b8035906020019184600183028401116401000000008311171561010957600080fd5b91908080601f016020809104026020016040519081016040528093929190818152602001838380828437600081840152601f19601f820116905080830192505050505050509192919290505050610383565b604051808215151515815260200191505060405180910390f35b61022e6004803603602081101561018b57600080fd5b81019080803590602001906401000000008111156101a857600080fd5b8201836020820111156101ba57600080fd5b803590602001918460018302840111640100000000831117156101dc57600080fd5b91908080601f016020809104026020016040519081016040528093929190818152602001838380828437600081840152601f19601f8201169050808301925050505050505091929192905050506103a2565b005b61025c6004803603602081101561024657600080fd5b81019080803590602001909291905050506103bc565b005b6103176004803603602081101561027457600080fd5b810190808035906020019064010000000081111561029157600080fd5b8201836020820111156102a357600080fd5b803590602001918460018302840111640100000000831117156102c557600080fd5b91908080601f016020809104026020016040519081016040528093929190818152602001838380828437600081840152601f19601f8201169050808301925050505050505091929192905050506103eb565b6040518082815260200191505060405180910390f35b600080600090505b60008054905081101561037857826000828154811061035057fe5b9060005260206000200154141561036b57600191505061037e565b8080600101915050610335565b50600090505b919050565b60008061038f836103eb565b905061039a8161032d565b915050919050565b60006103ad826103eb565b90506103b8816103bc565b5050565b600081908060018154018082558091505090600182039060005260206000200160009091929091909150555050565b60006002826040516020018080602001828103825283818151815260200191508051906020019080838360005b83811015610433578082015181840152602081019050610418565b50505050905090810190601f1680156104605780820380516001836020036101000a031916815260200191505b50925050506040516020818303038152906040526040518082805190602001908083835b602083106104a75780518252602082019150602081019050602083039250610484565b6001836020036101000a038019825116818451168082178552505050505050905001915050602060405180830381855afa1580156104e9573d6000803e3d6000fd5b5050506040513d60208110156104fe57600080fd5b8101908080519060200190929190505050905091905056fea265627a7a72315820117ae37b8fd91f3263af1d5f60119af828575fea680fdbfa525ba7c89550be0c64736f6c63430005100032",
  "source": "// SPDX-License-Identifier: MIT\npragma solidity >=0.4.22 <0.9.0;\n\ncontract proofOfExistence2 {\n  // list to store the proof\n  bytes32[] private proofs;\n\n  // store a proof in the list\n  function storeProof(bytes32 proof) public {\n    proofs.push(proof );\n  }\n\n  // give a documment that will be change into a proof and then store in the list\n  function notarize(string memory document) public {\n    bytes32 proof = proofFor(document);\n    storeProof(proof);\n  }\n\n  // make the proof\n  function proofFor(string memory document) public view returns (bytes32){\n    return sha256(abi.encode(document));\n  }\n\n  // \n  function checkDocument(string memory  document) public view returns (bool) {\n    bytes32 proof = proofFor(document);\n    return hashProof(proof);\n  }\n\n  function hashProof(bytes32 proof) public view returns (bool) {\n    for(uint256 i = 0; i < proofs.length ; i++){\n      if(proofs[i] == proof){\n        return true;\n      }\n    }\n\n    return false;\n  }\n\n}\n",
  "sourcePath": "C:/Users/Penyel Karlenry/Desktop/proof-of-existance/contracts/proofOfExistence2.sol",
  "compiler": {
    "name": "solc",
    "version": "0.5.16+commit.9c3226ce.Emscripten.clang"
  },
  "schemaVersion": "3.3.3",
  "updatedAt": "2021-03-13T22:09:34.302Z",
  "networkType": "ethereum",
  "devdoc": {
    "methods": {}
  },
  "userdoc": {
    "methods": {}
  }
}