{
  "contractName": "proofOfExistence3",
  "abi": [
    {
      "constant": false,
      "inputs": [
        {
          "internalType": "bytes32",
          "name": "proof",
          "type": "bytes32"
        }
      ],
      "name": "storeProof",
      "outputs": [],
      "payable": false,
      "stateMutability": "nonpayable",
      "type": "function"
    },
    {
      "constant": false,
      "inputs": [
        {
          "internalType": "string",
          "name": "document",
          "type": "string"
        }
      ],
      "name": "notarize",
      "outputs": [],
      "payable": false,
      "stateMutability": "nonpayable",
      "type": "function"
    },
    {
      "constant": true,
      "inputs": [
        {
          "internalType": "string",
          "name": "document",
          "type": "string"
        }
      ],
      "name": "proofFor",
      "outputs": [
        {
          "internalType": "bytes32",
          "name": "",
          "type": "bytes32"
        }
      ],
      "payable": false,
      "stateMutability": "view",
      "type": "function"
    },
    {
      "constant": true,
      "inputs": [
        {
          "internalType": "string",
          "name": "document",
          "type": "string"
        }
      ],
      "name": "checkDocument",
      "outputs": [
        {
          "internalType": "bool",
          "name": "",
          "type": "bool"
        }
      ],
      "payable": false,
      "stateMutability": "view",
      "type": "function"
    },
    {
      "constant": true,
      "inputs": [
        {
          "internalType": "bytes32",
          "name": "proof",
          "type": "bytes32"
        }
      ],
      "name": "hashProof",
      "outputs": [
        {
          "internalType": "bool",
          "name": "",
          "type": "bool"
        }
      ],
      "payable": false,
      "stateMutability": "view",
      "type": "function"
    }
  ],
  "bytecode": "0x608060405234801561001057600080fd5b5061051d806100206000396000f3fe608060405234801561001057600080fd5b50600436106100575760003560e01c8063184242a61461005c57806353fb9233146100a25780637183616c146101755780638952877b14610230578063f6c1acdf1461025e575b600080fd5b6100886004803603602081101561007257600080fd5b810190808035906020019092919050505061032d565b604051808215151515815260200191505060405180910390f35b61015b600480360360208110156100b857600080fd5b81019080803590602001906401000000008111156100d557600080fd5b8201836020820111156100e757600080fd5b8035906020019184600183028401116401000000008311171561010957600080fd5b91908080601f016020809104026020016040519081016040528093929190818152602001838380828437600081840152601f19601f820116905080830192505050505050509192919290505050610356565b604051808215151515815260200191505060405180910390f35b61022e6004803603602081101561018b57600080fd5b81019080803590602001906401000000008111156101a857600080fd5b8201836020820111156101ba57600080fd5b803590602001918460018302840111640100000000831117156101dc57600080fd5b91908080601f016020809104026020016040519081016040528093929190818152602001838380828437600081840152601f19601f820116905080830192505050505050509192919290505050610375565b005b61025c6004803603602081101561024657600080fd5b810190808035906020019092919050505061038f565b005b6103176004803603602081101561027457600080fd5b810190808035906020019064010000000081111561029157600080fd5b8201836020820111156102a357600080fd5b803590602001918460018302840111640100000000831117156102c557600080fd5b91908080601f016020809104026020016040519081016040528093929190818152602001838380828437600081840152601f19601f8201169050808301925050505050505091929192905050506103bd565b6040518082815260200191505060405180910390f35b600080600083815260200190815260200160002060009054906101000a900460ff169050919050565b600080610362836103bd565b905061036d8161032d565b915050919050565b6000610380826103bd565b905061038b8161038f565b5050565b600160008083815260200190815260200160002060006101000a81548160ff02191690831515021790555050565b60006002826040516020018080602001828103825283818151815260200191508051906020019080838360005b838110156104055780820151818401526020810190506103ea565b50505050905090810190601f1680156104325780820380516001836020036101000a031916815260200191505b50925050506040516020818303038152906040526040518082805190602001908083835b602083106104795780518252602082019150602081019050602083039250610456565b6001836020036101000a038019825116818451168082178552505050505050905001915050602060405180830381855afa1580156104bb573d6000803e3d6000fd5b5050506040513d60208110156104d057600080fd5b8101908080519060200190929190505050905091905056fea265627a7a72315820f6a40351451cb9bc93a38fdbbb5eb2b1527dd5aa317f6ebdcd5c0a97f1241d6664736f6c63430005100032",
  "source": "// SPDX-License-Identifier: MIT\npragma solidity >=0.4.22 <0.9.0;\n\ncontract proofOfExistence3 {\n  // see if the given value is there\n  mapping (bytes32 => bool) private proofs;\n\n  // store a proof of existance in the mapping\n  function storeProof(bytes32 proof) public {\n    proofs[proof] = true;\n  }\n\n  // calculate and store proof of a doc\n  function notarize(string memory document) public {\n    bytes32 proof = proofFor(document);\n    storeProof(proof);\n  }\n\n  // get a document hash\n  function proofFor(string memory document) public view returns(bytes32) {\n    return sha256(abi.encode(document));\n  }\n\n  // see if the proof already exist\n  function checkDocument(string memory document) public view returns(bool){\n    bytes32 proof = proofFor(document);\n    return hashProof(proof);\n  }\n\n  function hashProof(bytes32 proof)public view returns(bool) {\n    return proofs[proof];\n  }\n}\n",
  "sourcePath": "C:/Users/Penyel Karlenry/Desktop/proof-of-existance/contracts/proofOfExistence3.sol",
  "compiler": {
    "name": "solc",
    "version": "0.5.16+commit.9c3226ce.Emscripten.clang"
  },
  "schemaVersion": "3.3.3",
  "updatedAt": "2021-03-13T22:52:06.255Z",
  "networkType": "ethereum",
  "devdoc": {
    "methods": {}
  },
  "userdoc": {
    "methods": {}
  }
}